:03000000020100FA
:08010000314F318231B680FE5F
:10013000C00078FA313BD8FCD00022C000780431EE
:1001400046D8FCD00022C00078F4D8FED000227A35
:100150000F79607B04EA2410F5903177FAE590542A
:100160000FC4F5F0EA2410F5903177FAE590540FBA
:1001700025F0F709DBDF22C00078283130D8FCD029
:100180000022786079707A04E6F5F0940AE5F05080
:10019000047705801A9414E5F05004770F801094CA
:1001A0001EE5F05004771980067723E5F0800008FB
:1001B000091ABA00D32279707A04E7B4050575905C
:1001C000108015B40F05759020800DB41905759039
:1001D000408005759080800031E1091ABA00DB315A
:0C01E000B6C00078143130D8FCD00022EA
:00000001FF
