:03000000020EBF2E
:0C0EBF00787FE4F6D8FD75810C020F0668
:10080000492073656520612072656420646F6F7292
:100810000020416E6420492077616E742069742045
:100820002000207061696E74656420626C61636B86
:100830002F20002020204E6F20636F6C6F7273207A
:100840002020200020202020616E796D6F72652F9E
:100850002020202000492077616E74207468656D27
:1008600020746F20200020207475726E20626C61ED
:10087000636B2F2020200049207365652074686514
:10088000206769726C7320002020202077616C6BD8
:100890002062792F202020200044726573736564E4
:1008A00020696E2074686569720073756D6D65727C
:1008B00020636C6F746865732F200049206861762F
:1008C0006520746F207475726E2020002020202017
:1008D0006D7920686561642F202020200020202071
:1008E000556E74696C206D792020202020002064D2
:1008F00061726B6E65737320676F65732F200020C4
:100900002049207365652061206C696E6520200098
:10091000202020206F6620636172732F202020200A
:1009200000416E64207468657927726520616C6C83
:100930002000207061696E74656420626C61636B75
:100940002F200020205769746820666C6F776572CD
:10095000732020002020616E64206D79206C6F76FA
:10096000652F20200020426F7468206E65766572C6
:1009700020746F2020002020636F6D65206261630A
:100980006B2F202020200049277665207365656E37
:100990002070656F706C65007475726E2074686588
:1009A000697220686561647300202020416E6420B4
:1009B000717569636B6C792020002020206C6F6F4B
:1009C0006B20617761792F20202000204C696B65B6
:1009D0002061206E6577626F726E200020202020DB
:1009E00020626162792F202020202020004974207D
:1009F0006A7573742068617070656E7320002020C2
:100A00002065766572796461792F2020202000208E
:100A100049206C6F6F6B20696E73696465202000DC
:100A200020202020206D7973656C662F20202020E7
:100A300000416E6420736565206D79206865617280
:100A4000740020202020697320626C61636B2F206A
:100A5000202000202020204920736565206D79200A
:100A6000202020002020202072656420646F6F7297
:100A70002F202020002049206D7573742068617636
:100A8000652069742000207061696E74656420625D
:100A90006C61636B2F20004D61796265207468651D
:100AA0006E2C2049276C6C00202020666164652034
:100AB000617761792F20202000416E64206E6F7471
:100AC000206861766520746F20006661636520741C
:100AD00068652066616374732F2000204974277352
:100AE000206E6F74206561737920200020202066BD
:100AF0006163696E672075702F202020005768653C
:100B00006E20796F75722077686F6C652000776F43
:100B1000726C6420697320626C61636B2F20004EDD
:100B20006F206D6F72652077696C6C206D79200085
:100B3000202020677265656E207365612F2020205C
:100B400000202020476F207475726E2061202020C5
:100B50002000202064656570657220626C75652FC9
:100B60002020004920636F756C64206E6F742066CE
:100B70006F7265002D7365652074686973207468F1
:100B8000696E672F00202048617070656E696E671E
:100B900020746F202000202020202020796F752FC6
:100BA00020202020202000202020204966204920CD
:100BB0006C6F6F6B202020002020686172642065BC
:100BC0006E6F7567682F20200020202020496E74EA
:100BD0006F207468652020202000202073657474C5
:100BE000696E672073756E2F20200020204D7920BC
:100BF0006C6F76652077696C6C202000206C6175C5
:100C000067682077697468206D652F200020202098
:100C10004265666F72652074686520202000206D33
:100C20006F726E696E6720636F6D65732F20002091
:100C3000202020204920736565206120202020008D
:100C40002020202072656420646F6F722F20202086
:010C500000A3
:04101600020B0BB806
:100F4B00E4F5A0C282C280C2817F38FE120FF2127A
:100F5B000F907F067E00120FF2120F907F0C7E0017
:100F6B00120FF2120F907F017E00120FF2120F90F0
:070F7B007F807E00020FF2EF
:100F8200AF0CAE0B120F947F807E00120FF27F0423
:020F92007E00DF
:100F9400E4FDFCC3ED9FEC9E5015E4FBFA0BBB0093
:0F0FA400010ABA01F8BB7EF50DBD00010C80E417
:010FB300221B
:100FF200C280C281D2828FA07F0A7E00120F94C269
:02100200822248
:10100400D280C281D2828FA07F0A7E00120F94C246
:02101400822236
:100FB4008B088A09890AAB08AA09A90A120FD96001
:100FC40013050AE50A7002050914F9120FD9FF1274
:050FD400100480E22280
:100C5100120F4B120F897BFF7A087900120FB41221
:100C61000F827BFF7A087911120FB47FC0120F8BAC
:100C71007BFF7A087922120FB4120F827BFF7A0868
:100C81007933120FB47FC0120F8B7BFF7A0879443E
:100C9100120FB4120F827BFF7A087955120FB47FBD
:100CA100C0120F8B7BFF7A087966120FB4120F8284
:100CB1007BFF7A087977120FB47FC0120F8B7BFF0D
:100CC1007A087988120FB4120F827BFF7A0879991A
:100CD100120FB47FC0120F8B7BFF7A0879AA120F13
:100CE100B4120F827BFF7A0879BB120FB47FC01256
:100CF1000F8B7BFF7A0879CC120FB4120F827BFF26
:100D01007A0879DD120FB47FC0120F8B7BFF7A084E
:100D110079EE120FB4120F827BFF7A0879FF120F5E
:100D2100B47FC0120F8B7BFF7A097910120FB412B6
:100D31000F827BFF7A097921120FB47FC0120F8BCA
:100D41007BFF7A097932120FB4120F827BFF7A0985
:100D51007943120FB47FC0120F8B7BFF7A0979544C
:100D6100120FB4120F827BFF7A097965120FB47FDB
:100D7100C0120F8B7BFF7A097976120FB4120F82A2
:100D81007BFF7A097987120FB47FC0120F8B7BFF2B
:100D91007A097998120FB4120F827BFF7A0979A927
:100DA100120FB47FC0120F8B7BFF7A0979BA120F31
:100DB100B4120F827BFF7A0979CB120FB47FC01274
:100DC1000F8B7BFF7A0979DC120FB4120F827BFF44
:100DD1007A0979ED120FB47FC0120F8B7BFF7A096C
:100DE10079FE120FB4120F827BFF7A0A790F120F6C
:100DF100B47FC0120F8B7BFF7A0A7920120FB412D5
:100E01000F827BFF7A0A7931120FB47FC0120F8BE8
:100E11007BFF7A0A7942120FB4120F827BFF7A0AA2
:100E21007953120FB47FC0120F8B7BFF7A0A79645A
:100E3100120FB4120F827BFF7A0A7975120FB47FF9
:100E4100C0120F8B7BFF7A0A7986120FB4120F82C0
:100E51007BFF7A0A7997120FB47FC0120F8B7BFF49
:100E61007A0A79A8120FB4120F827BFF7A0A79B934
:100E7100120FB47FC0120F8B7BFF7A0A79CA120F4F
:100E8100B4120F827BFF7A0A79DB120FB47FC01292
:100E91000F8B7BFF7A0A79EC120FB4120F827BFF62
:100EA1007A0A79FD120FB47FC0120F8B7BFF7A0B88
:0E0EB100790E120FB4AF0CAE0B120F9480FE30
:100ECB00020C51E493A3F8E493A34003F68001F2E0
:100EDB0008DFF48029E493A3F85407240CC8C33328
:100EEB00C4540F4420C8834004F456800146F6DFF7
:100EFB00E4800B0102040810204080901016E47E61
:100F0B00019360BCA3FF543F30E509541FFEE493EB
:100F1B00A360010ECF54C025E060A840B8E493A3B2
:100F2B00FAE493A3F8E493A3C8C582C8CAC583CADD
:100F3B00F0A3C8C582C8CAC583CADFE9DEE780BE95
:01101A0000D5
:100FD900BB010689828A83E0225002E722BBFE0216
:090FE900E32289828A83E4932249
:00000001FF
