:03000000020ABD34
:0C0ABD00787FE4F6D8FD758141020B043F
:100B4900313541382A44362300456E746572205088
:100B5900617373776F72643A2000436F72726563D1
:100B6900742050617373776F726400204163636509
:100B79007373204772616E74656420002057726F29
:100B89006E672050617373776F7264200020416330
:0E0B9900636573732044656E696564202000F7
:100BA7000936313541382A443623001121202020C7
:100BB7002020202020202020202020202000011A73
:100BC70030023400000232000002181388021D00B0
:100BD70014021B0000021F00001008313233413499
:0B0BE700353642373839432A302344AA
:100BF300E4F5A0C282C280C2817F38FE120C90123B
:100C03000C4F7F067E00120C90120C4F7F0C7E005F
:100C1300120C90120C4F7F017E00120C90120C4F9D
:070C23007F807E00020C90AF
:040C4F007F047E00A0
:100C5300E4FDFCC3ED9FEC9E5015E4FBFA0BBB00D7
:0F0C6300010ABA01F8BB7EF50DBD00010C80E45B
:010C7200225F
:040C8C007F807E00E7
:100C9000C280C281D2828FA07F0A7E00120C53C212
:020CA0008222AE
:100CA200D280C281D2828FA07F0A7E00120C53C2F0
:020CB20082229C
:100C2A008B3F8A408941AB3FAA40A941120C7360AD
:100C3A00130541E5417002054014F9120C73FF12C5
:050C4A000CA280E22273
:10080000120BF3120C8C75900F7BFF7A0B7952123E
:100810000C2AC2B7C2B6C2B5C2B48006E5B0640F36
:10082000600A75B00F80F5E5B0B40F0575B00F80A4
:10083000F6801DE5B0640F70238006E5B0640F609C
:100840000A75B00F80F5E5B0B40F0575B00F80F6EE
:10085000AF1EAE1D120C5375B00F80D720B307E446
:10086000F51BF51C801C20B208751B00751C01804F
:100870001120B108751B00751C028006751B0075E0
:100880001C0375B0EFE5B064EF6007E4F51FF520D9
:10089000803675B0DFE5B064DF6008751F00752035
:1008A00001802575B0AFE5B064AF6008751F0075B5
:1008B0002002801475B07FE5B0647F6008751F006A
:1008C000752003800375B0EFE520451F700CE51C13
:1008D000451B7006751A310209FFE5206401451FAA
:1008E000700CE51C451B7006751A340209FFE520E3
:1008F0006402451F700CE51C451B7006751A370213
:1009000009FFE5206403451F700CE51C451B7006BC
:10091000751A2A0209FFE520451F700EE51C6401C7
:10092000451B7006751A320209FFE5206401451F58
:10093000700EE51C6401451B7006751A350209FF2F
:10094000E5206402451F700EE51C6401451B70061E
:10095000751A380209FFE5206403451F700EE51C77
:100960006401451B7006751A300209FFE520451F1A
:10097000700EE51C6402451B7006751A330209FFF0
:10098000E5206401451F700DE51C6402451B7005E0
:10099000751A36806AE5206402451F700DE51C64F7
:1009A00002451B7005751A398055E5206403451F03
:1009B000700DE51C6402451B7005751A238040E527
:1009C00020451F700DE51C6403451B7005751A4119
:1009D000802DE5206401451F700DE51C6403451B57
:1009E0007005751A428018E5206402451F700DE5F8
:1009F0001C6403451B7005751A438003751A44AFC8
:040A00001A7E002238
:100A0400120BF3E4F534F535120800AE3574362EC6
:100A1400F8A60774362EF8E6F5277FC07E00120C80
:100A2400907B007A007921120C2A0535E535700295
:100A34000534C39408E534940040CDE4F534F53529
:100A440074362535F8E6FF74492535F582740B357F
:100A540034F583E4936F60087532007533018013B5
:100A6400E4F532F5330535E535700205346408459F
:100A74003470CDE53364014532701E120BF3120C51
:100A84008C7BFF7A0B7985120C2A7FC07E00120CB6
:100A9400907BFF7A0B7996801C120BF3120C8C7BE3
:100AA400FF7A0B7963120C2A7FC07E00120C907BB4
:090AB400FF7A0B7974120C2A225E
:100AC900020A04E493A3F8E493A34003F68001F235
:100AD90008DFF48029E493A3F85407240CC8C3332E
:100AE900C4540F4420C8834004F456800146F6DFFD
:100AF900E4800B0102040810204080900BA7E47EDB
:100B0900019360BCA3FF543F30E509541FFEE493F1
:100B1900A360010ECF54C025E060A840B8E493A3B8
:100B2900FAE493A3F8E493A3C8C582C8CAC583CAE3
:100B3900F0A3C8C582C8CAC583CADFE9DEE780BE9B
:010BF2000002
:100C7300BB010689828A83E0225002E722BBFE027F
:090C8300E32289828A83E49322B2
:00000001FF
