:03000000020100FA
:08010000314F315D318880FEB2
:10013000C00078FA313BD8FCD00022C000780431EE
:1001400046D8FCD00022C00078F4D8FED00022753A
:1001500070D87571AD7572057801790122E57088E6
:10016000F0A4AAF0FB3188E98571F0A4FCEB9CFDBA
:10017000ACF0EA9CFC500308315DBD0007BC0104F3
:100180008972318809C380DF8572F053F01085F0E1
:100190009031AA75900031B58572F053F00185F069
:1001A0009031AA75900031B53188C0007814313093
:1001B000D8FCD00022C00078043130D8FCD0002216
:00000001FF
