:03000000020D9B53
:0C0D9B00787FE4F6D8FD75810C020DE2B3
:100800004E6F206D6F72652077696C6C206D79205A
:1008100000202020677265656E207365612F20209F
:100820002000202020476F207475726E20612020E8
:10083000202000202064656570657220626C7565FB
:100840002F2020004920636F756C64206E6F742028
:10085000666F7265002D7365652074686973207416
:1008600068696E672F00202048617070656E696E40
:100870006720746F202000202020202020796F75B1
:100880002F202020202020002020202049662049E1
:10089000206C6F6F6B202020002020686172642024
:1008A000656E6F7567682F20200020202020496E1C
:1008B000746F2074686520202020002020736574E8
:1008C00074696E672073756E2F20200020204D798B
:1008D000206C6F76652077696C6C202000206C613D
:1008E0007567682077697468206D652F2000202067
:1008F000204265666F7265207468652020200020A4
:100900006D6F726E696E6720636F6D65732F200067
:100910002020202020492073656520612020202090
:10092000002020202072656420646F6F722F2020C9
:1009300020002020416E6420492077616E74206978
:10094000742000207061696E74656420626C61635C
:100950006B2F2000202020204E6F20636F6C6F7261
:1009600073202020002020202020616E796D6F727E
:10097000652F2020200020492077616E7420746844
:10098000656D20746F20002020207475726E2062C7
:100990006C61636B2F20200020202020492073658C
:1009A000652074686520202000206769726C7320C0
:1009B00077616C6B2062792F2000447265737365D8
:1009C0006420696E2074686569720073756D6D6569
:1009D0007220636C6F746865732F20002049206853
:1009E00061766520746F207475726E20002020205F
:1009F00020206D7920686561642F20202000202050
:100A00002020556E74696C206D79202020200020F4
:100A10006461726B6E65737320676F65732F20005E
:100A2000202020492077616E6E612073656520204B
:100A3000002020206974207061696E7465642F2025
:100A40002000205061696E74656420626C61636B84
:100A50002F2000426C61636B206173206E696768B0
:100A6000742F200020426C61636B20617320636FE0
:100A7000616C2F20002020492077616E6E61207309
:100A80006565202020002020202074686520737573
:100A90006E2F2020202000202020426C6F7474656F
:100AA00064206F7574202000202066726F6D2074A2
:100AB000686520736B792F200020492077616E6E66
:100AC00061207365652069742000202020207061FA
:100AD000696E7465642C2020202000202020207066
:100AE00061696E7465642C20202020002020202065
:100AF0007061696E7465642F202020200020506191
:100B0000696E74656420626C61636B2C2000202028
:0F0B1000202020796561682F20202020202000E0
:040EF200020B0BB82C
:100E2700E4F5A0C282C280C2817F38FE120ECE12C4
:100E37000E6C7F067E00120ECE120E6C7F0C7E00AB
:100E4700120ECE120E6C7F017E00120ECE120E6CA9
:070E57007F807E00020ECE39
:100E5E00AF0CAE0B120E707F807E00120ECE7F0492
:020E6E007E0004
:100E7000E4FDFCC3ED9FEC9E5015E4FBFA0BBB00B8
:0F0E8000010ABA01F8BB7EF50DBD00010C80E43C
:010E8F002240
:100ECE00C280C281D2828FA07F0A7E00120E70C2B3
:020EDE0082226E
:100EE000D280C281D2828FA07F0A7E00120E70C291
:020EF00082225C
:100E90008B088A09890AAB08AA09A90A120EB5604B
:100EA00013050AE50A7002050914F9120EB5FF12BE
:050EB0000EE080E222CB
:100B1F00120E27120E657BFF7A087900120E907F56
:100B2F00C0120E677BFF7A087911120E90120E5EBB
:100B3F007BFF7A087922120E907FC0120E677BFF1F
:100B4F007A087933120E90120E5E7BFF7A08794481
:100B5F00120E907FC0120E677BFF7A087955120E26
:100B6F0090120E5E7BFF7A087966120E907FC0128C
:100B7F000E677BFF7A087977120E90120E5E7BFF5D
:100B8F007A087988120E907FC0120E677BFF7A0861
:100B9F007999120E90120E5E7BFF7A0879AA120EC7
:100BAF00907FC0120E677BFF7A0879BB120E9012EE
:100BBF000E5E7BFF7A0879CC120E907FC0120E6703
:100BCF007BFF7A0879DD120E90120E5E7BFF7A089A
:100BDF0079EE120E907FC0120E677BFF7A0879FFB5
:100BEF00120E90120E5E7BFF7A097910120E907F13
:100BFF00C0120E677BFF7A097921120E90120E5EDA
:100C0F007BFF7A097932120E907FC0120E677BFF3D
:100C1F007A097943120E90120E5E7BFF7A0979548E
:100C2F00120E907FC0120E677BFF7A097965120E44
:100C3F0090120E5E7BFF7A097976120E907FC012AA
:100C4F000E677BFF7A097987120E90120E5E7BFF7B
:100C5F007A097998120E907FC0120E677BFF7A097E
:100C6F0079A9120E90120E5E7BFF7A0979BA120ED5
:100C7F00907FC0120E677BFF7A0979CB120E90120C
:100C8F000E5E7BFF7A0979DC120E907FC0120E6721
:100C9F007BFF7A0979ED120E90120E5E7BFF7A09B7
:100CAF0079FE120E907FC0120E677BFF7A0A790FC2
:100CBF00120E90120E5E7BFF7A0A7920120E907F31
:100CCF00C0120E677BFF7A0A7931120E90120E5EF8
:100CDF007BFF7A0A7942120E907FC0120E677BFF5C
:100CEF007A0A7953120E90120E5E7BFF7A0A79649C
:100CFF00120E907FC0120E677BFF7A0A7975120E63
:100D0F0090120E5E7BFF7A0A7986120E907FC012C8
:100D1F000E677BFF7A0A7997120E90120E5E7BFF99
:100D2F007A0A79A8120E907FC0120E677BFF7A0A9B
:100D3F0079B9120E90120E5E7BFF7A0A79CA120EE3
:100D4F00907FC0120E677BFF7A0A79DB120E90122A
:100D5F000E5E7BFF7A0A79EC120E907FC0120E673F
:100D6F007BFF7A0A79FD120E90AF0CAE0B120E704C
:100D7F007F017E00120ECE120E657BFF7A0B790E6D
:0C0D8F00120E90AF0CAE0B120E7080FE26
:100DA700020B1FE493A3F8E493A34003F68001F238
:100DB70008DFF48029E493A3F85407240CC8C3334D
:100DC700C4540F4420C8834004F456800146F6DF1C
:100DD700E4800B0102040810204080900EF2E47EAC
:100DE700019360BCA3FF543F30E509541FFEE49311
:100DF700A360010ECF54C025E060A840B8E493A3D8
:100E0700FAE493A3F8E493A3C8C582C8CAC583CA02
:100E1700F0A3C8C582C8CAC583CADFE9DEE780BEBA
:010EF60000FB
:100EB500BB010689828A83E0225002E722BBFE023B
:090EC500E32289828A83E493226E
:00000001FF
