:030000000208ED06
:0C08ED00787FE4F6D8FD75812002093404
:100AA800202053544F505741544348204F4E202044
:100AB80000202053544F505741544348204F464636
:020AC80020000C
:100ACA0002180000021A0000020A0000020E0000CA
:100ADA00020C0000010830010930011C30011D30F0
:1009F900E4F5A0C282C280C2817F38FE120AEB12DE
:100A09000A847F067E00120AEB120A847F0C7E009C
:100A1900120AEB120A847F017E00120AEB120A8481
:070A29007F807E00020AEB52
:040A84007F047E006D
:100A8800E4FDFCC3ED9FEC9E5015E4FBFA0BBB00A4
:0F0A9800010ABA01F8BB7EF50DBD00010C80E428
:010AA700222C
:100AEB00C280C281D2828FA07F0A7E00120A88C286
:020AFB00822255
:100A30007FC57E00120AEBAF08120A4DAF09120AF9
:0D0A40004D7F3A120A4DAF1C120A4DAF1D3A
:100A4D00D280C281D2828FA07F0A7E00120A88C214
:020A5D008222F3
:100A5F008B1E8A1F8920AB1EAA1FA920120979603D
:100A6F00130520E5207002051F14F9120979FF12F2
:050A7F000A4D80E22297
:03000B00020AFDE9
:0B0AFD00B2B4758CFF758AC4C28D3244
:10080000758905758CFF758AC4D2A9D2AFD28C12B6
:1008100009F92090030208CCD28CAF8A7518008F9A
:1008200019AF8C751A008F1BE51B7F00FEEF251991
:10083000F50BE5183EF50AFEAF0B7C007D3C120976
:10084000A48E0A8F0B7C007D3C1209A48E0E8F0FA4
:100850007C007D3C120992C3E50B9FF50DE50A9ED5
:10086000F50CAE0EAF0F7D0A1209A48E148F157C05
:10087000007D0A120992C3E50F9FF517E50E9EF55C
:1008800016AE0CAF0D1209A48E108F117C007D0ADC
:10089000120992C3E50D9FF513E50C9EF512E515BF
:1008A0002430F508E5172430F509E5112430F51C4E
:1008B000E5132430F51D7F807E00120AEB7BFF7A62
:1008C0000A79A8120A5F120A300208123090030255
:1008D0000812C28CE4F58AF58C7F80FE120AEB7B4D
:0D08E000FF7A0A79B9120A5F120A3080DF30
:1008F900020800E493A3F8E493A34003F68001F20D
:1009090008DFF48029E493A3F85407240CC8C333FF
:10091900C4540F4420C8834004F456800146F6DFCE
:10092900E4800B0102040810204080900ACAE47E8A
:10093900019360BCA3FF543F30E509541FFEE493C3
:10094900A360010ECF54C025E060A840B8E493A38A
:10095900FAE493A3F8E493A3C8C582C8CAC583CAB5
:10096900F0A3C8C582C8CAC583CADFE9DEE780BE6D
:010AEA00000B
:10097900BB010689828A83E0225002E722BBFE027C
:09098900E32289828A83E49322AF
:10099200EF8DF0A4A8F0CF8CF0A428CE8DF0A42E79
:0209A200FE2233
:1009A400BC000BBE0029EF8DF084FFADF022E4CC37
:1009B400F875F008EF2FFFEE33FEEC33FCEE9DEC00
:1009C400984005FCEE9DFE0FD5F0E9E4CEFD22ED46
:1009D400F8F5F0EE8420D21CFEADF075F008EF2F90
:1009E400FFED33FD4007985006D5F0F222C398FD81
:0509F4000FD5F0EA221E
:00000001FF
