:03000000020AB140
:0C0AB100787FE4F6D8FD75811A020AF87F
:1009F6002053544152542050524F4752414D2020CB
:100A0600002020464952535420494E505554202028
:100A160020002020204E45585420494E5055542041
:100A2600202000202020534F5254494E472E2E2E70
:100A36002020200020202020534F5254494E47208A
:100A46002020202000202020434F4D504C45544567
:100A560044202020200020204E554D42455220544F
:100A66004F2042452020002020202053454152435C
:100A76004845442020202000202054484520494E47
:100A860044455820495320200020202020204E5540
:100A96004D4245522020202020002020204E4F5439
:0B0AA60020464F554E44202020200029
:100C520002081388021100000213000002150000AE
:0E0C6200020F0000050A00000000000117004C
:100BAB00E4F5A0C282C280C2817F38FE120C7C7F2A
:100BBB00047E00120C077F067E00120C7C7F047EE5
:100BCB0000120C077F0C7E00120C7C7F047E00123F
:100BDB000C077F017E00120C7C7F047E00120C0739
:070BEB007F807E00020C7CFC
:100BF200AF09AE08120C0753900FAE08AF097C0084
:050C02007D05120B56F8
:100C0700E4FDFCC3ED9FEC9E5015E4FBFA0BBB0023
:0F0C1700010ABA01F8BB7EF50DBD00010C80E4A7
:010C260022AB
:0B0C7100AF09AE08120C077F807E0068
:100C7C00C280C281D2828FA07F0A7E00120C07C272
:020C8C008222C2
:100C8E00D280C281D2828FA07F0A7E00120C07C250
:020C9E008222B0
:060C27007BFF7A0A791838
:100C2D008B188A19891AAB18AA19A91A120B3D60CB
:100C3D0013051AE51A7002051914F9120B3DFF126E
:050C4D000C8E80E22284
:10080000120BAB120C7875900F7BFF7A0979F612F8
:100810000C2D120C717BFF7A0A7907120C2DAF098F
:10082000AE08120C07E590C454F0F5905390F08593
:10083000900A120BF243900F751100751201120C01
:1008400078120C27AF09AE08120C07E590C454F0DB
:10085000F5905390F0740A2512F8A690120BF2430B
:10086000900F0512E51270020511C39404E511946E
:100870000040CB120C78120C27120C717BFF7A0A05
:100880007929120C2DE590C454F0F5905390F08521
:10089000900EAF09AE08120C0753900F120C787B24
:1008A000FF7A0A793A120C2D7FC07E00120C7C7BF5
:1008B000FF7A0A794B120C2D120BFCE4F511F5129C
:1008C000E4F513F514C374059512FFE49511FEC306
:1008D000E5149FE5139E5030AF14740A2FF8E6FE1E
:1008E000740B2FF8E6FFC39E5014EF750F00F51040
:1008F000AF14740B2FF8A606740A2FF8A61005146F
:10090000E51470C1051380BD0512E51270020511D2
:100910006405451170AAE4F511F512740A2512F860
:10092000E6F590AF09AE08120C0775900F120BFC9C
:100930000512E51270020511C39405E511940040FB
:10094000DA75900F120BFC7590FF120C787BFF7A12
:100950000A795C120C2D7FC07E00120C7C7BFF7A22
:100960000A796D120C2DAF09AE08120C0753900FC7
:10097000859017E517C454F0F5177F017E00120C1F
:100980007C120BFCE4F511F512740A2512F8E6B599
:100990001729751500751601E512C4F8540FC868BB
:1009A000F512E511C454F048F511851290120C7837
:1009B0007BFF7A0A797E120C2D80110512E51270E8
:1009C000020511C39405E511940040BDE5164515D7
:1009D00070227590FF7F80FE120C7C7BFF7A0A7973
:1009E0008F120C2D7FC07E00120C7C7BFF7A0A795F
:0609F000A0120C2D80FE98
:100ABD00020800E493A3F8E493A34003F68001F247
:100ACD0008DFF48029E493A3F85407240CC8C3333A
:100ADD00C4540F4420C8834004F456800146F6DF09
:100AED00E4800B0102040810204080900C52E47E3B
:100AFD00019360BCA3FF543F30E509541FFEE493FE
:100B0D00A360010ECF54C025E060A840B8E493A3C4
:100B1D00FAE493A3F8E493A3C8C582C8CAC583CAEF
:100B2D00F0A3C8C582C8CAC583CADFE9DEE780BEA7
:010C70000083
:100B3D00BB010689828A83E0225002E722BBFE02B6
:090B4D00E32289828A83E49322E9
:100B5600BC000BBE0029EF8DF084FFADF022E4CC83
:100B6600F875F008EF2FFFEE33FEEC33FCEE9DEC4C
:100B7600984005FCEE9DFE0FD5F0E9E4CEFD22ED92
:100B8600F8F5F0EE8420D21CFEADF075F008EF2FDC
:100B9600FFED33FD4007985006D5F0F222C398FDCD
:050BA6000FD5F0EA226A
:00000001FF
